:1000000012C02CC02BC02AC029C028C027C026C0BF
:1000100025C0BEC323C022C021C020C01FC01EC037
:100020001DC01CC01BC011241FBECFE5D4E0DEBF25
:10003000CDBF10E0A0E6B0E0ECE1F2E102C0059037
:100040000D92A83FB107D9F721E0A8EFB0E001C0B9
:100050001D92A335B207E1F7B9D2DEC8D1CFFC01BA
:100060009B9B05C08181811102C0148601C0108252
:100070008485873019F491E0908302C0883C10F4A5
:100080008F5F848783B383FB882780F98183808196
:10009000882319F0128286E904C08381882319F02D
:1000A0008150838302C081E082838581968127818C
:1000B00030858217930720F401969683858302C0CA
:1000C0001682158225813681828593852817390706
:1000D00018F481E0818701C01186918582B3913047
:1000E00011F08F7D12C09281913019F4806382BB30
:1000F00008958F7D82BB9081913021F486E08483C6
:10010000949808959481911102C08061F0CF91502C
:1001100094830895FB012581233018F42F5F2583F4
:1001200008C015822481223018F42F5F248301C077
:10013000148227813085283E43E0340728F42F5F5E
:100140003F4F3087278306C010861782368121E013
:100150002327268322B3276022BB42B3248162E097
:1001600070E0621B710921E030E001C0220F6A9546
:10017000EAF72095242322BBDC0112962C9122233E
:1001800031F02681213019F0258121110BC0248105
:10019000DF01A20FB11DAC91B0E0A958BF4F2C9167
:1001A00028BB01C018BA2481213049F4DC0119961A
:1001B0008C91811103C08581811101C0C79A089576
:1001C000FC018285882311F08150828786858230E8
:1001D000B1F128F4882349F08130E1F008958330AB
:1001E000A1F1843009F491C008958785882309F42A
:1001F000ABC0A281B38181E090E0068002C0880F8D
:10020000991F0A94E2F79C91892B8C9385E0828751
:1002100081E099C08285811197C0A281B38181E07C
:1002200090E0068002C0880F991F0A94E2F780953B
:100230009C9189238C9385E0828782E084C08285AB
:10024000811182C0138681E07CC08385A781B0853F
:10025000A80FB11D9C9184858923A281B381268139
:100260008823A9F181E090E0AC0102C0440F551F42
:100270002A95E2F79A013C91232B2C9355E05A954D
:10028000F1F70000A281B381068002C0880F991F98
:100290000A94E2F780959C9189238C9382E28A9557
:1002A000F1F700C0A481B5818C9190E0068002C076
:1002B000959587950A94E2F780FD25C08385A781EF
:1002C000B085A80FB11D9C91848589271BC081E052
:1002D00090E0AC0102C0440F551F2A95E2F79A0145
:1002E0003C91232B2C935DEA5A95F1F70000A281F3
:1002F000B381068002C0880F991F0A94E2F78095A7
:100300009C9189238C9384E01EC0A281B38181E0FB
:1003100090E0068002C0880F991F0A94E2F780954A
:100320009C9189238C938485880F59F481E084877C
:1003300083858F5F83879185891720F016861786BE
:100340000895848783E086870895CF93DF93EC0137
:10035000FB017C836B838CEC8D8384E48E838785A7
:10036000811108C0CE0105969087878382E081873E
:1003700081E087878B819C8123DFEB81FC818785EE
:10038000811109C084E893E0998B888B82E088838F
:10039000DF91CF91089587EC90E00197F1F700C0CD
:1003A0000000E8CFCF93DF93CDB7DEB72B970FB622
:1003B000F894DEBF0FBECDBF9E012F5F3F4FF90106
:1003C00070E0AF01421B530B461757072CF4DC01BA
:1003D0004D91CD014193F5CFF90180E0A8E1AF0146
:1003E000421B530B46175707A4F4908148E050E096
:1003F000B82FB927B0FF04C08A278695806801C04E
:1004000086954150510996954115510589F791936B
:10041000E6CF2B960FB6F894DEBF0FBECDBFDF91AF
:10042000CF9108950F931F93CF93DF93FC018081A9
:10043000813009F488C020F0823009F48FC0C1C037
:1004400003811481D8011F968C918111BAC0EF01EC
:100450002796ADEFB0E089918D9381E0A530B80784
:10046000D1F7EF0168E08DEF90E09CDF8093FC0016
:100470009F859093FB0098131AC01092FA008DEF9D
:1004800090E09093F9008093F8006091FD007091E6
:10049000FE00072E000C880B990BDDD220E030E027
:1004A00040E25FE33CD3A4D27A83698339C0809170
:1004B000FA00883CA8F58F5F8093FA008B3080F1BA
:1004C0008CEC8D8384E48E83D8011F968C911F97CA
:1004D00081110DC0CE01059618969C938E931797A7
:1004E00082E019968C93199781E01F968C938B81EB
:1004F0009C8166DEEB81FC818785811159C084E88F
:1005000093E0998B888B82E08883E091F800F091EA
:10051000F90087EE93E0918380839A83898351C0A9
:100520008CEC8D8384E48E83F8018785811108C06B
:10053000CE0105969087878382E0818781E0878757
:1005400081E088833EC0A381B4811F968C91811184
:1005500038C082E0808384E893E031C0808991894B
:10056000009711F001972BC08CEC85838EEB86836E
:100570008FEF8783808781878287838784878587BA
:1005800086878787A381B4811F968C911F978111DD
:100590000DC0CF01059618969C938E9317978BE00C
:1005A00019968C93199781E01F968C93108209C03D
:1005B00087EC90E00197F1F700C0000098CF918B95
:1005C000808BDF91CF911F910F91089583E085BBC0
:1005D00014BA12BACFEFC1BB83BF83E882BF81E0F8
:1005E00089BF80E090E0BCD590930B0180930A0115
:1005F000AA98A29885E390E090932E0180932D0114
:1006000084E390E09093300180932F0183E390E0A6
:10061000909332018093310182E0809333011092F4
:100620003B016DE271E08DE391E08FDE84E690E0C6
:10063000909328018093270182B38F7D806182BBD4
:10064000C7BB81B3876081BB80E790E090931301C3
:100650008093120189E690E090930E0180930D0142
:100660007894FFCFCF93DF93EC01FB01DA0188810F
:10067000883C99F48B81811110C014968C91149749
:10068000813019F08481813041F489E18B8380EAE3
:100690008883148214961C92149788818F5F8883B4
:1006A0008B81811141C084818130E9F489819A81F3
:1006B000823C9140C4F4148289819A819C012F5F0D
:1006C0003F4F3A8329832381263018F005969A8379
:1006D000898383818B3028F089819A8105969A835A
:1006E00089831482188214968C9114978130E1F4D6
:1006F00089819A818B3F9105BCF09C012150310981
:100700003A8329832381263018F005979A838983B9
:1007100083818B3028F089819A8105979A83898318
:1007200014961C92149718828881893018F01382CD
:1007300013961C928881863929F469817A8180E038
:1007400090E013D58881893C10F088EC88838881FB
:10075000863918F08B81882399F08A818F9389815B
:100760008F9380E690E09F938F9387E191E09F9332
:100770008F9367D20F900F900F900F900F900F9064
:100780008B81882311F081508B83DF91CF91089565
:100790001F920F920FB60F9211242F933F934F93F6
:1007A0005F936F937F938F939F93AF93BF93EF93D9
:1007B000FF9383E882BF10924F01809152018F5FB7
:1007C0008093520180915001909151010196909334
:1007D0005101809350018091070190910801883068
:1007E000974020F010920801109207012091070114
:1007F0003091080182B32E31310510F4877F01C09A
:10080000886082BB809105019091060101969093CA
:10081000060180930501883E934068F080910701AE
:10082000909108010196909308018093070110921E
:100830000601109205018DE391E0F4DD8091400105
:1008400090914101BDDC20913E0130913F018091AA
:100850000A0190910B01281739073CF486E690E0D5
:1008600090932B0180932A0104C010922B011092C7
:100870002A0180E291E0F3DB67E171E080E291E040
:1008800049DCE0911201F0911301A281B3818C91B6
:1008900090E0068002C0959587950A94E2F780FD66
:1008A00006C0809114018F5F8093140102C01092E2
:1008B000140180911401893C50F081E0809316016D
:1008C000809115018F5F8093150110921401809122
:1008D0001501803118F08FE080931501E0910D0132
:1008E000F0910E01A281B3818C9190E0068002C04C
:1008F000959587950A94E2F780FD06C080910F01D7
:100900008F5F80930F0102C010920F0180910F0141
:10091000893C50F081E080931101809110018F5F3C
:100920008093100110920F0180911001803118F016
:100930008FE08093100180915201853680F0809184
:100940004F0181110CC04DE051E062E171E089E09E
:1009500091E088DE1092520181E080934F018091F6
:10096000500190915101893E934088F180914F014F
:1009700081112DC0109251011092500180910901F6
:10098000873928F180910C01811121C080913E01AD
:1009900090913F019C012B5D3D4F2D30364090F4EE
:1009A0009F938F9380E690E09F938F9387E191E0F0
:1009B0009F938F9346D10F900F900F900F900F90B1
:1009C0000F9005C065E670E087E191E033D1FF91BB
:1009D000EF91BF91AF919F918F917F916F915F91B7
:1009E0004F913F912F910F900FBE0F901F90189530
:1009F00004D06894B1118DC0089570D088F09F57CD
:100A000090F0B92F9927B751A0F0D1F0660F771F5A
:100A1000881F991F1AF0BA95C9F712C0B13081F03A
:100A200077D0B1E0089574C0672F782F8827B85F1A
:100A300039F0B93FCCF3869577956795B395D9F79B
:100A40003EF490958095709561957F4F8F4F9F4FA5
:100A50000895E89409C097FB3EF4909580957095B1
:100A600061957F4F8F4F9F4F9923A9F0F92F96E9FA
:100A7000BB279395F695879577956795B795F1116F
:100A8000F8CFFAF4BB0F11F460FF1BC06F5F7F4F0C
:100A90008F4F9F4F16C0882311F096E911C077231E
:100AA00021F09EE8872F762F05C0662371F096E827
:100AB000862F70E060E02AF09A95660F771F881FF6
:100AC000DAF7880F9695879597F9089557FD90580E
:100AD000440F551F59F05F3F71F04795880F97FB02
:100AE000991F61F09F3F79F08795089512161306BC
:100AF0001406551FF2CF4695F1DF08C016161706EB
:100B00001806991FF1CF869571056105089408951F
:100B1000E894BB2766277727CB0197F908950BD078
:100B200078C069D028F06ED018F0952309F05AC02B
:100B30005FC01124EECFCADFA0F3959FD1F3950FCC
:100B400050E0551F629FF001729FBB27F00DB11D51
:100B5000639FAA27F00DB11DAA1F649F6627B00DE1
:100B6000A11D661F829F2227B00DA11D621F739FCA
:100B7000B00DA11D621F839FA00D611D221F749FD8
:100B80003327A00D611D231F849F600D211D822F1F
:100B9000762F6A2F11249F5750408AF0E1F0882366
:100BA0004AF0EE0FFF1FBB1F661F771F881F915073
:100BB0005040A9F79E3F510570F014C0AACF5F3F87
:100BC000ECF3983EDCF3869577956795B795F795A6
:100BD000E7959F5FC1F7FE2B880F911D969587952E
:100BE00097F9089597F99F6780E870E060E00895AD
:100BF0009FEF80EC089500240A9416161706180635
:100C00000906089500240A94121613061406050610
:100C10000895092E0394000C11F4882352F0BB0FA1
:100C200040F4BF2B11F460FF04C06F5F7F4F8F4F04
:100C30009F4F0895FB01DC0101900D920020E1F728
:100C40000895AEE0B0E0E6E2F6E0BDC20D891E898F
:100C500086E08C831A8309838FEF9FE79E838D83C1
:100C6000AE01475E5F4F6F89788DCE01019609D046
:100C70002F813885F801E20FF31F10822E96E4E0F1
:100C8000BEC2ACE0B0E0E6E4F6E08FC27C016B01EE
:100C90008A01FC0117821682838181FFB0C1CE01D7
:100CA00001964C01F7019381F60193FD859193FF25
:100CB00081916F01882309F49EC1853239F493FD37
:100CC000859193FF81916F01853221F4B70190E006
:100CD000B1D1E8CF512C312C20E02032A0F48B325E
:100CE00069F030F4803259F0833269F420612CC00D
:100CF0008D3239F0803339F4216026C022602460BF
:100D000023C0286021C027FD27C030ED380F3A30BE
:100D100078F426FF06C0FAE05F9E300D1124532EB2
:100D200013C08AE0389E300D1124332E20620CC08F
:100D30008E3221F426FD5FC1206406C08C3611F48A
:100D4000206802C0883641F4F60193FD859193FF37
:100D500081916F018111C1CF982F9F7D9554933060
:100D600028F40C5F1F4FFFE3F9830DC0833631F089
:100D7000833771F0833509F057C021C0F8018081B5
:100D800089830E5F1F4F44244394512C540114C097
:100D90003801F2E06F0E711CF801A080B18026FFCF
:100DA00003C0652D70E002C06FEF7FEFC5012C8797
:100DB00036D12C0183012C852F77222E16C03801C5
:100DC000F2E06F0E711CF801A080B18026FF03C015
:100DD000652D70E002C06FEF7FEFC5012C8714D145
:100DE0002C012C852068222E830123FC19C0832D21
:100DF00090E048165906A0F4B70180E290E01AD1BD
:100E00003A94F5CFF50127FC859127FE81915F018A
:100E1000B70190E00FD131103A94F1E04F1A510828
:100E20004114510479F7DEC0843611F0893631F56A
:100E3000F80127FF07C060817181828193810C5F77
:100E40001F4F08C060817181072E000C880B990B21
:100E50000E5F1F4F2F76722E97FF09C090958095D9
:100E6000709561957F4F8F4F9F4F2068722E2AE0BB
:100E700030E0A40117D1A82EA81843C0853729F463
:100E80002F7EB22E2AE030E025C0F22FF97FBF2E50
:100E90008F36C1F018F4883579F0ADC0803719F07D
:100EA000883721F0A8C02F2F2061B22EB4FE0DC0CC
:100EB0008B2D8460B82E09C024FF0AC09F2F966036
:100EC000B92E06C028E030E005C020E130E002C0C5
:100ED00020E132E0F801B7FE07C0608171818281B4
:100EE00093810C5F1F4F06C06081718180E090E0AC
:100EF0000E5F1F4FA401D6D0A82EA818FB2DFF7798
:100F00007F2E76FE0BC0372D3E7FA51450F474FE65
:100F10000AC072FC08C0372D3E7E05C0BA2C372DA2
:100F200003C0BA2C01C0B52C34FF0DC0FE01EA0D80
:100F3000F11D8081803311F4397E09C032FF06C073
:100F4000B394B39404C0832F867809F0B39433FD2F
:100F500012C030FF06C05A2CB31418F4530C5B189F
:100F6000B32CB31460F4B70180E290E03C8762D008
:100F7000B3943C85F6CFB31410F43B1801C0312C68
:100F800034FF11C0B70180E390E03C8753D03C852B
:100F900032FF16C031FD03C088E790E002C088E54B
:100FA00090E0B7010CC0832F867851F031FF02C06A
:100FB0008BE201C080E237FD8DE2B70190E03AD0CC
:100FC000A51430F4B70180E390E034D05A94F8CF00
:100FD000AA94F401EA0DF11D8081B70190E02AD0B6
:100FE000A110F6CF332009F45DCEB70180E290E086
:100FF00021D03A94F7CFF7018681978102C08FEF15
:101000009FEF2C96E2E1EDC0FC010590615070402D
:101010000110D8F7809590958E0F9F1F0895FC01C1
:101020006150704001900110D8F7809590958E0F17
:101030009F1F08950F931F93CF93DF93FB0123818D
:1010400021FD03C08FEF9FEF28C022FF16C046810D
:101050005781248135814217530744F4A081B1811F
:101060009D012F5F3F4F318320838C9326813781F1
:101070002F5F3F4F3783268310C0EB01092F182FB6
:101080000084F185E02D0995892BE1F68E819F8101
:1010900001969F838E83812F902FDF91CF911F9197
:1010A0000F910895FA01AA27283051F1203181F1DA
:1010B000E8946F936E7F6E5F7F4F8F4F9F4FAF4F60
:1010C000B1E03ED0B4E03CD0670F781F891F9A1F73
:1010D000A11D680F791F8A1F911DA11D6A0F711D27
:1010E000811D911DA11D20D009F468943F912AE033
:1010F000269F11243019305D3193DEF6CF0108951B
:10110000462F4770405D4193B3E00FD0C9F7F6CF4B
:10111000462F4F70405D4A3318F0495D31FD405213
:10112000419302D0A9F7EACFB4E0A69597958795A9
:1011300077956795BA95C9F7009761057105089588
:101140009B01AC010A2E0694579547953795279534
:10115000BA95C9F7620F731F841F951FA01D0895CC
:10116000A8E1B0E042E050E005C012D0272F11C046
:10117000DC01CB01FC01E199FECF06C0FFBBEEBB59
:10118000E09A31960DB20D9241505040B8F7089553
:10119000262FE199FECF9FBB8EBB2DBB0FB6F894D7
:1011A000E29AE19A0FBE019608952F923F924F92D4
:1011B0005F926F927F928F929F92AF92BF92CF92E7
:1011C000DF92EF92FF920F931F93CF93DF93CDB7F0
:1011D000DEB7CA1BDB0B0FB6F894DEBF0FBECDBF68
:1011E00009942A88398848885F846E847D848C8439
:1011F0009B84AA84B984C884DF80EE80FD800C8142
:101200001B81AA81B981CE0FD11D0FB6F894DEBF24
:0C1210000FBECDBFED010895F894FFCF94
:10121C002530336400303670003500330034000064
:10122C003500330034000100000000000000000015
:10123C0000000000000000000000000000000000A2
:10124C000000000000000000000000000000000092
:10125C00000000004000003F065B4F666D7D077F7D
:10126C006F00000000000000000000000000000003
:10127C000000000000000000000000000000000062
:10128C000000000000000000777C395E79713D742D
:10129C00100E7A3837545C7367506D781C727E76FA
:0812AC006E4900000000000083
:00000001FF
